:020000040000FA
:1000000040040020D5000000DD000000DF000000FB
:10001000E1000000E3000000E50000000000000037
:10002000000000000000000000000000E7000000E9
:10003000E900000000000000EB000000D10100001A
:10004000110200006D020000EF000000EF00000050
:10005000EF000000EF000000EF000000EF000000E4
:10006000EF000000EF000000EF000000EF000000D4
:10007000EF000000EF000000EF000000EF000000C4
:10008000EF000000EF000000EF000000EF000000B4
:10009000EF000000EF000000EF000000EF000000A4
:1000A000EF000000EF000000EF000000EF00000094
:1000B000EF000000EF000000EF000000EF00000084
:1000C000DFF80CD000F04AF800480047290C000087
:1000D000400400200648804706480047FEE7FEE748
:1000E000FEE7FEE7FEE7FEE7FEE7FEE7FEE7FEE7E8
:1000F000F1010000C10000002DE9F05F054600207D
:1001000092469B4688460646814640241BE0284688
:1001100041464746224600F042F853465A46C01A26
:10012000914110D311461846224600F029F82D1AA5
:1001300067EB01084F4622460120002100F020F81D
:1001400017EB00094E41201EA4F10104DFDC4846F4
:1001500031462A464346BDE8F09F0000064C074D55
:1001600006E0E06840F0010394E807009847103487
:10017000AC42F6D3FFF7A8FF580D0000780D000041
:10018000202A04DB203A00FA02F100207047914057
:10019000C2F1200320FA03F3194390407047202A4C
:1001A00004DB203A21FA02F00021704721FA02F321
:1001B000D040C2F120029140084319467047002008
:1001C000704700000149002008607047008002402D
:1001D00002484168491C416070470000000000204F
:1001E000024901480860704740787D0120000020E6
:1001F00004480549026842F4700202600348016045
:100200007047000088ED00E040787D01200000206C
:1002100070B5154CE168A069CD68806850B1D4F81C
:1002200018C00A686346DCF8101001F1010CC3F82D
:1002300010C04254A069014600690968884210D381
:10024000A1690020086061694871E1680846896811
:1002500021F0080181606069016800291CBF02204B
:100260008847E068C56070BD040D000070B5134C90
:10027000A169E0684968C568E9B1A06902464069BA
:10028000401C5061884205D2A169E268C968085CD7
:10029000106010E0A1690020486061690871E168A0
:1002A0000846896821F004018160606901680029BD
:1002B0001CBF01208847E068C56070BD040D0000C8
:1002C000484A536993F807C01CF0020F04BF4FF06F
:1002D000FF307047F0B4C4B20025A4F11506062E15
:1002E00001F0010339D2DFE806F01D2903071203EC
:1002F000F0BC6FF003007047D16800200B4689689E
:1003000021F00401996051690D71F0BC7047D1680A
:1003100000200B46896821F00801996051694D71F0
:10032000F0BC70474CF00801D2F814C000208CF8E3
:100330000710D1680A46896819430BE04CF0100198
:10034000D2F814C000208CF80710D1680A468968DA
:1003500041EA43019160F0BC704753691B793BB996
:1003600053695B7923B9D3685B6813F0030F03D03B
:10037000F0BC6FF001007047012CB9D110F4E06FB0
:100380001EBF6FF00800F0BC704710F4405F1EBF46
:100390006FF00900F0BC704710F4404F1EBF6FF0C3
:1003A0000A00F0BC704710F4403F1EBF6FF00B0016
:1003B000F0BC70470C480068B0FBF1F3102B3EBF57
:1003C0006FF00700F0BC7047B0FBF1F1D36800207C
:1003D000196151690A46C97941F00401D171F0BC33
:1003E00070470000040D0000200000200148006854
:1003F00070470000040D000018B400200090009920
:10040000009BDDF800C0009C009A5B0861F30000CF
:100410004FEA9C0C63F34100E1086CF3820012097F
:1004200061F3C30018BC62F31F10704701480069F4
:10043000704700002800002078B41C4800994269E9
:10044000127962F30001009100994269527962F3D6
:100450004101009100994069807960F3C3010091E6
:100460000099009DDDF800C0009B009C009A61F39C
:10047000000000996D084FEA9C06DDF800C065F3A6
:100480004100DD08230966F38200540965F3C300C7
:10049000890963F304104FEADC1264F3451078BC59
:1004A00061F3861062F3DF1070470000040D000056
:1004B0000148406970470000280000201E4902469C
:1004C0004DF8044D4869C07910F0010F1EBF00209F
:1004D0005DF8044B70474FF0000C4C6960460123F7
:1004E00022608A69C2F800C0C2F804C0C2F808C01D
:1004F000C2F80CC0C2F810C0C2F814C0D1F804C0D1
:100500006246DCF800C01279DCF8184003FA02F207
:100510002243CCF818208A68944612689CF804C0DC
:10052000946903FA0CFC44EA0C0CC2F818C049693F
:10053000CB715DF8044B7047040D00003A4901226D
:1005400070B491F9103091F911504FEA531C4FEAF1
:10055000551403F01F0305F01F064FEA840502FA45
:1005600003F402FA06F34FEA8C0C05F1E0220CF1D9
:10057000E02C40B1012802BF6FF0030070BC70474F
:10058000022823D02EE04D692846ED7925F002059A
:10059000C57191F91000002806DB00BFCCF880413E
:1005A000BFF34F8FBFF36F8FA8BFCCF8804291F994
:1005B0001100002806DB00BFC2F88031BFF34F8F67
:1005C000BFF36F8FA8BFC2F880320BE04869C079D3
:1005D00010F0010F02BF4FF0FF3070BC704710F0F9
:1005E000020F03D070BC4FF0000070474E694FF00F
:1005F00000004FF0030530714E6970714E69B071A3
:100600004869C57191F910000028A4BFCCF8804258
:10061000CCF8004191F911000028A4BFC2F8803243
:10062000C2F80031DEE70000040D0000030012BF35
:1006300000296FF00400704730B4174A5069C07940
:1006400010F0040F02BF4FF0FF3030BC704750690C
:10065000407920B9D068406810F0020F03D030BC58
:100660006FF00100704795694FF0000C4FF00104E6
:1006700060462960516981F806C091698B60916973
:10068000C1F810C051694C71D1680A46896841F0BF
:100690000801916030BC7047040D0000002812BFB3
:1006A00000296FF004007047184A5369DB7913F092
:1006B000040F04BF4FF0FF30704753691B7923B913
:1006C000D3685B6813F0010F02D06FF00100704730
:1006D000D2F814C04FF001038CF804309369D8604D
:1006E000906941604FF0000091694861D06801460F
:1006F000806840F0040088609069D2680146C06854
:100700004969415C4FF0000011607047040D000022
:100710006FF0030070476FF003007047104901222B
:100720004DF8044D00204B689C461B689CF804C0A3
:100730009C6902FA0CFC24EA0C0CC3F818C08B6804
:100740009C461B689CF804C09C6902FA0CF224EADF
:1007500002029A614969C8715DF8044B7047000054
:10076000040D00000148006870470000000D000003
:100770000FB4054B10B503A9044A029800F018F80D
:1007800010BC5DF814FB0000150C000024000020D4
:1007900002E008C8121F08C1002AFAD1704770474A
:1007A000002001E001C1121F002AFBD170470000A8
:1007B0002DE9FF4F8DB00F460546002606E025289F
:1007C0000BD0DDE90F1290476D1C761C28780028AD
:1007D000F5D111B03046BDE8F08F0024A246A14605
:1007E0000122EC4900E0044315F8013F203B02FAE6
:1007F00003F00842F7D128782A2810D06FF02F0292
:100800002878A0F13001092914D80AEB8A0102EBFB
:10081000410144F0020400EB010A6D1CF0E701CF36
:100820005FEA000A03D544F40054CAF1000A44F018
:1008300002046D1C28782E2817D115F8010F44F0FA
:1008400004042A280ED06FF02F022878A0F130017E
:1008500009290AD809EB890102EB410100EB0109E2
:100860006D1CF2E757F8049B6D1C28786C280FD09C
:1008700006DC4C2817D068280DD06A2814D104E073
:10088000742810D07A280FD10DE044F400140AE047
:1008900044F4801401E044F440146978814202D1A8
:1008A00004F580146D1C6D1C2A786E2A1FD00CDC98
:1008B000632A31D004DC002A8BD0582A11D1A3E05E
:1008C000642A68D0692A0CD165E0732A2ED004DC32
:1008D0006F2A73D0702A04D19BE0752A6FD0782AD2
:1008E0006ED01046DDE90F129047761C50E1C4F33C
:1008F0000250022806D0032809D0042801CF09D0CD
:10090000066045E101CFF117C0E9006140E101CF88
:1009100006803DE106703BE117F8040B8DF80000FE
:1009200000208DF80100EB46012003E057F804BBDE
:100930004FF0FF3061074FF0000102D40DE008F1E5
:100940000101884649450FDA8045F8DB1BF808109D
:100950000029F4D108E008F1010188468142FADB60
:100960001BF808100029F6D1DDE90F23AAEB0800D7
:100970008146214600F036F9304400EB080604E0D9
:10098000DDE90F121BF8010B9047B8F10108F7D20F
:1009900021464846F7E00A21C4F302534FF0000B0A
:1009A0000891022B04D001CFC117032B09D00AE014
:1009B000FF1D27F00707F7E8020108E032E01FE01B
:1009C00020E000B2C117042B01D140B2C117031EB1
:1009D00071F1000307DA4FF0000CD0EB0C006CEB68
:1009E00001012D2302E0230504D52B238DF82430AB
:1009F000012303E0E30701D02023F7E7984658E0FE
:100A00000A2110E010210EE010204FF0000B08909A
:100A10000CE010214FF0000B44F004044FF00809E3
:100A2000089103E008214FF0000B0891C4F3025332
:100A3000022B04D001CF0021032B06D006E0FF1DBE
:100A400027F00707F7E8020103E080B2042B00D18A
:100A5000C0B24FF0000823072BD5702A07D0DDF86D
:100A600020C08CF0100C5CEA0B0C05D00EE040238B
:100A70008DF82430012308E050EA010306D030232A
:100A80008DF824308DF8252002239846DDF820C00B
:100A90008CF0080C5CEA0B0C0BD150EA010301D17D
:100AA000630706D530238DF824304FF00108A9F1F3
:100AB0000109582A04D038A20B9208AA0A920BE026
:100AC0003AA2F9E75B46089AFFF716FB0B9B9B5C83
:100AD0000A9A521E0A92137050EA0102F2D10A9841
:100AE000ADEB000000F1200B600702D524F4803448
:100AF00001E04FF00109D94502DDA9EB0B0000E050
:100B0000002000EB0B0141440890AAEB010AE0032E
:100B100006D4DDE90F232146504600F063F8064471
:100B20004FF0000908E009A911F80900DDE90F12EA
:100B3000904709F10109761CC145F4DBE0030CD5AF
:100B4000DDE90F232146504600F04CF8064404E04E
:100B5000DDE90F1230209047761C0899481E089056
:100B60000029F5DC08E00A980A990078491C0A91E6
:100B7000DDE90F129047761CBBF10001ABF1010BD0
:100B8000F1DC21465046DDE90F2300F019F8064458
:100B90006D1C1BE6092801003031323334353637FD
:100BA00038396162636465660000000030313233B9
:100BB0003435363738394142434445460000000059
:100BC0002DE9F041044600251E461746880404D44A
:100BD00005E039462020B0476D1C641EF9D5284633
:100BE000BDE8F0812DE9F041044600251E469046FF
:100BF000C80301D5302700E02027880404D505E08C
:100C000041463846B0476D1C641EF9D52846BDE8FC
:100C1000F0810000034A91421CBF4FF0FF30704743
:100C200000F058B824000020FFF7DAFAFFF7CAFAFC
:100C3000FFF7C5FA00F032F80F480068800A411E3D
:100C4000B1F1807F0AD24FF0E0204161E0210B4AF0
:100C500082F8141D0021072281610261084C60683E
:100C60008005800DFBD12288501C208005A108A0A2
:100C7000FFF77EFDF3E70000200000200FE000E01A
:100C80000000002048656C6C6F20576F726C640028
:100C90002573205B253038785D0D0A0010B50C4CAB
:100CA0000020A168884780B921690220884760B97F
:100CB000A26A01204FF4E131904730B9A26A0121C4
:100CC00015209047002808BF10BD4FF0FF3010BD21
:100CD000200D000038B5094C012105468DF80000B3
:100CE00068466269904700281CBF4FF0FF3038BD4E
:100CF000206A80470128FBD1284638BD200D00001E
:100D0000030200010106000010000020180000206E
:100D100000400040000100000800002028000020E2
:100D200065070000ED030000BD0400001D07000082
:100D30003D0500009D0600002D060000170700007D
:100D4000B10400002D040000C102000039040000BD
:100D500011070000F9030000780D000000000020DA
:100D60002800000090070000A00D000028000020CF
:100D700018040000A00700000000000000000000B0
:100D80000000000000000000001001400000000012
:100D9000001001400100000040787D0100000000CB
:04000005000000C136
:00000001FF
